{
  "contractName": "Agent",
  "abi": [
    {
      "constant": true,
      "inputs": [
        {
          "name": "",
          "type": "uint256"
        }
      ],
      "name": "doctorList",
      "outputs": [
        {
          "name": "",
          "type": "address"
        }
      ],
      "payable": false,
      "stateMutability": "view",
      "type": "function"
    },
    {
      "constant": true,
      "inputs": [
        {
          "name": "",
          "type": "address"
        },
        {
          "name": "",
          "type": "uint256"
        }
      ],
      "name": "patientToImages",
      "outputs": [
        {
          "name": "ipfsHash",
          "type": "string"
        },
        {
          "name": "title",
          "type": "string"
        },
        {
          "name": "description",
          "type": "string"
        },
        {
          "name": "tags",
          "type": "string"
        },
        {
          "name": "uploadedOn",
          "type": "uint256"
        }
      ],
      "payable": false,
      "stateMutability": "view",
      "type": "function"
    },
    {
      "constant": true,
      "inputs": [
        {
          "name": "",
          "type": "uint256"
        }
      ],
      "name": "insurerList",
      "outputs": [
        {
          "name": "",
          "type": "address"
        }
      ],
      "payable": false,
      "stateMutability": "view",
      "type": "function"
    },
    {
      "constant": true,
      "inputs": [
        {
          "name": "",
          "type": "uint256"
        }
      ],
      "name": "patientList",
      "outputs": [
        {
          "name": "",
          "type": "address"
        }
      ],
      "payable": false,
      "stateMutability": "view",
      "type": "function"
    },
    {
      "constant": true,
      "inputs": [
        {
          "name": "",
          "type": "uint256"
        }
      ],
      "name": "hospitalList",
      "outputs": [
        {
          "name": "",
          "type": "address"
        }
      ],
      "payable": false,
      "stateMutability": "view",
      "type": "function"
    },
    {
      "constant": true,
      "inputs": [
        {
          "name": "",
          "type": "uint256"
        }
      ],
      "name": "laboratoryList",
      "outputs": [
        {
          "name": "",
          "type": "address"
        }
      ],
      "payable": false,
      "stateMutability": "view",
      "type": "function"
    },
    {
      "constant": false,
      "inputs": [
        {
          "name": "_name",
          "type": "string"
        },
        {
          "name": "_age",
          "type": "uint256"
        },
        {
          "name": "_designation",
          "type": "uint256"
        },
        {
          "name": "_hash",
          "type": "string"
        }
      ],
      "name": "add_agent",
      "outputs": [
        {
          "name": "",
          "type": "string"
        }
      ],
      "payable": false,
      "stateMutability": "nonpayable",
      "type": "function"
    },
    {
      "constant": false,
      "inputs": [
        {
          "name": "_name",
          "type": "string"
        },
        {
          "name": "_designation",
          "type": "uint256"
        }
      ],
      "name": "add_insurer",
      "outputs": [
        {
          "name": "",
          "type": "string"
        }
      ],
      "payable": false,
      "stateMutability": "nonpayable",
      "type": "function"
    },
    {
      "constant": false,
      "inputs": [
        {
          "name": "_name",
          "type": "string"
        },
        {
          "name": "_designation",
          "type": "uint256"
        }
      ],
      "name": "add_laboratory",
      "outputs": [
        {
          "name": "",
          "type": "string"
        }
      ],
      "payable": false,
      "stateMutability": "nonpayable",
      "type": "function"
    },
    {
      "constant": true,
      "inputs": [
        {
          "name": "addr",
          "type": "address"
        }
      ],
      "name": "get_patient",
      "outputs": [
        {
          "name": "",
          "type": "string"
        },
        {
          "name": "",
          "type": "uint256"
        },
        {
          "name": "",
          "type": "uint256[]"
        },
        {
          "name": "",
          "type": "address[]"
        },
        {
          "name": "",
          "type": "string"
        },
        {
          "name": "",
          "type": "address[]"
        }
      ],
      "payable": false,
      "stateMutability": "view",
      "type": "function"
    },
    {
      "constant": true,
      "inputs": [
        {
          "name": "addr",
          "type": "address"
        }
      ],
      "name": "get_doctor",
      "outputs": [
        {
          "name": "",
          "type": "string"
        },
        {
          "name": "",
          "type": "uint256"
        }
      ],
      "payable": false,
      "stateMutability": "view",
      "type": "function"
    },
    {
      "constant": true,
      "inputs": [
        {
          "name": "addr",
          "type": "address"
        }
      ],
      "name": "get_insurer",
      "outputs": [
        {
          "name": "",
          "type": "string"
        }
      ],
      "payable": false,
      "stateMutability": "view",
      "type": "function"
    },
    {
      "constant": true,
      "inputs": [
        {
          "name": "addr",
          "type": "address"
        }
      ],
      "name": "get_laboratory",
      "outputs": [
        {
          "name": "",
          "type": "string"
        }
      ],
      "payable": false,
      "stateMutability": "view",
      "type": "function"
    },
    {
      "constant": true,
      "inputs": [
        {
          "name": "paddr",
          "type": "address"
        },
        {
          "name": "daddr",
          "type": "address"
        }
      ],
      "name": "get_patient_doctor_name",
      "outputs": [
        {
          "name": "",
          "type": "string"
        },
        {
          "name": "",
          "type": "string"
        }
      ],
      "payable": false,
      "stateMutability": "view",
      "type": "function"
    },
    {
      "constant": false,
      "inputs": [
        {
          "name": "addr",
          "type": "address"
        }
      ],
      "name": "permit_access_to_doctor",
      "outputs": [],
      "payable": true,
      "stateMutability": "payable",
      "type": "function"
    },
    {
      "constant": false,
      "inputs": [
        {
          "name": "addr",
          "type": "address"
        }
      ],
      "name": "permit_access_to_insurer",
      "outputs": [],
      "payable": true,
      "stateMutability": "payable",
      "type": "function"
    },
    {
      "constant": false,
      "inputs": [
        {
          "name": "addr",
          "type": "address"
        }
      ],
      "name": "permit_access_to_laboratory",
      "outputs": [],
      "payable": true,
      "stateMutability": "payable",
      "type": "function"
    },
    {
      "constant": false,
      "inputs": [
        {
          "name": "paddr",
          "type": "address"
        },
        {
          "name": "_diagnosis",
          "type": "uint256"
        },
        {
          "name": "_hash",
          "type": "string"
        }
      ],
      "name": "insurance_claim",
      "outputs": [],
      "payable": true,
      "stateMutability": "payable",
      "type": "function"
    },
    {
      "constant": false,
      "inputs": [
        {
          "name": "paddr",
          "type": "address"
        },
        {
          "name": "_diagnosis",
          "type": "uint256"
        },
        {
          "name": "_hash",
          "type": "string"
        }
      ],
      "name": "insurance_claim_for_lab",
      "outputs": [],
      "payable": true,
      "stateMutability": "payable",
      "type": "function"
    },
    {
      "constant": false,
      "inputs": [
        {
          "name": "paddr",
          "type": "address"
        },
        {
          "name": "daddr",
          "type": "address"
        }
      ],
      "name": "remove_patient_for_doctor",
      "outputs": [],
      "payable": false,
      "stateMutability": "nonpayable",
      "type": "function"
    },
    {
      "constant": false,
      "inputs": [
        {
          "name": "paddr",
          "type": "address"
        },
        {
          "name": "daddr",
          "type": "address"
        }
      ],
      "name": "remove_patient_for_insurer",
      "outputs": [],
      "payable": false,
      "stateMutability": "nonpayable",
      "type": "function"
    },
    {
      "constant": false,
      "inputs": [
        {
          "name": "paddr",
          "type": "address"
        },
        {
          "name": "daddr",
          "type": "address"
        }
      ],
      "name": "remove_patient_for_laboratory",
      "outputs": [],
      "payable": false,
      "stateMutability": "nonpayable",
      "type": "function"
    },
    {
      "constant": true,
      "inputs": [
        {
          "name": "addr",
          "type": "address"
        }
      ],
      "name": "get_accessed_doctorlist_for_patient",
      "outputs": [
        {
          "name": "",
          "type": "address[]"
        }
      ],
      "payable": false,
      "stateMutability": "view",
      "type": "function"
    },
    {
      "constant": true,
      "inputs": [
        {
          "name": "addr",
          "type": "address"
        }
      ],
      "name": "get_accessed_patientlist_for_doctor",
      "outputs": [
        {
          "name": "",
          "type": "address[]"
        }
      ],
      "payable": false,
      "stateMutability": "view",
      "type": "function"
    },
    {
      "constant": true,
      "inputs": [
        {
          "name": "addr",
          "type": "address"
        }
      ],
      "name": "get_accessed_patientlist_for_insurer",
      "outputs": [
        {
          "name": "",
          "type": "address[]"
        }
      ],
      "payable": false,
      "stateMutability": "view",
      "type": "function"
    },
    {
      "constant": true,
      "inputs": [
        {
          "name": "addr",
          "type": "address"
        }
      ],
      "name": "get_accessed_insurerlist_for_patient",
      "outputs": [
        {
          "name": "",
          "type": "address[]"
        }
      ],
      "payable": false,
      "stateMutability": "view",
      "type": "function"
    },
    {
      "constant": true,
      "inputs": [
        {
          "name": "addr",
          "type": "address"
        }
      ],
      "name": "get_accessed_patientlist_for_laboratory",
      "outputs": [
        {
          "name": "",
          "type": "address[]"
        }
      ],
      "payable": false,
      "stateMutability": "view",
      "type": "function"
    },
    {
      "constant": true,
      "inputs": [
        {
          "name": "addr",
          "type": "address"
        }
      ],
      "name": "get_accessed_laboratorylist_for_patient",
      "outputs": [
        {
          "name": "",
          "type": "address[]"
        }
      ],
      "payable": false,
      "stateMutability": "view",
      "type": "function"
    },
    {
      "constant": false,
      "inputs": [
        {
          "name": "daddr",
          "type": "address"
        }
      ],
      "name": "revoke_access_for_doctor",
      "outputs": [],
      "payable": true,
      "stateMutability": "payable",
      "type": "function"
    },
    {
      "constant": false,
      "inputs": [
        {
          "name": "daddr",
          "type": "address"
        }
      ],
      "name": "revoke_access_for_insurer",
      "outputs": [],
      "payable": true,
      "stateMutability": "payable",
      "type": "function"
    },
    {
      "constant": false,
      "inputs": [
        {
          "name": "daddr",
          "type": "address"
        }
      ],
      "name": "revoke_access_for_laboratory",
      "outputs": [],
      "payable": true,
      "stateMutability": "payable",
      "type": "function"
    },
    {
      "constant": true,
      "inputs": [],
      "name": "get_patient_list",
      "outputs": [
        {
          "name": "",
          "type": "address[]"
        }
      ],
      "payable": false,
      "stateMutability": "view",
      "type": "function"
    },
    {
      "constant": true,
      "inputs": [],
      "name": "get_doctor_list",
      "outputs": [
        {
          "name": "",
          "type": "address[]"
        }
      ],
      "payable": false,
      "stateMutability": "view",
      "type": "function"
    },
    {
      "constant": true,
      "inputs": [],
      "name": "get_insurer_list",
      "outputs": [
        {
          "name": "",
          "type": "address[]"
        }
      ],
      "payable": false,
      "stateMutability": "view",
      "type": "function"
    },
    {
      "constant": true,
      "inputs": [],
      "name": "get_laboratory_list",
      "outputs": [
        {
          "name": "",
          "type": "address[]"
        }
      ],
      "payable": false,
      "stateMutability": "view",
      "type": "function"
    },
    {
      "constant": true,
      "inputs": [
        {
          "name": "paddr",
          "type": "address"
        }
      ],
      "name": "get_hash",
      "outputs": [
        {
          "name": "",
          "type": "string"
        }
      ],
      "payable": false,
      "stateMutability": "view",
      "type": "function"
    }
  ],
  "bytecode": "0x608060405234801561001057600080fd5b50614753806100206000396000f3fe6080604052600436106101bb576000357c0100000000000000000000000000000000000000000000000000000000900480627ee3ce146101c05780630643b61614610266578063127ca4b4146102aa5780631a7ddc2f146103255780631e3fc3b8146103965780632b87779d146104ec5780632fa665a31461070b5780633b1f956b1461074f5780634042d2d4146107f55780634b437fdf14610a0a5780634c726f4114610a4e57806356c98c4814610a925780636c209a2b14610b6357806378d1457814610ba757806378ffb29214610c4d5780637e1519ce14610cc85780638c0d18c514610d925780638dfec71614610edd57806392668bb314610f215780639cb8d07314610fc7578063a44672cf14611091578063b8973f811461115b578063babb1d41146111c7578063c39e963514611242578063c5689683146112ae578063c82412b914611393578063cb790e1d1461140e578063d272989e14611489578063dd44176b1461152f578063df2d50b1146115d5578063e81ac05414611646578063eaeb64d9146116b2578063ee59d4cd146117fd578063f02d90a414611869578063f24be9e714611a55578063fb66fd2314611b3a575b600080fd5b3480156101cc57600080fd5b5061020f600480360360208110156101e357600080fd5b81019080803573ffffffffffffffffffffffffffffffffffffffff169060200190929190505050611bab565b6040518080602001828103825283818151815260200191508051906020019060200280838360005b83811015610252578082015181840152602081019050610237565b505050509050019250505060405180910390f35b6102a86004803603602081101561027c57600080fd5b81019080803573ffffffffffffffffffffffffffffffffffffffff169060200190929190505050611c81565b005b3480156102b657600080fd5b506102e3600480360360208110156102cd57600080fd5b8101908080359060200190929190505050611ced565b604051808273ffffffffffffffffffffffffffffffffffffffff1673ffffffffffffffffffffffffffffffffffffffff16815260200191505060405180910390f35b34801561033157600080fd5b506103946004803603604081101561034857600080fd5b81019080803573ffffffffffffffffffffffffffffffffffffffff169060200190929190803573ffffffffffffffffffffffffffffffffffffffff169060200190929190505050611d2b565b005b3480156103a257600080fd5b50610405600480360360408110156103b957600080fd5b81019080803573ffffffffffffffffffffffffffffffffffffffff169060200190929190803573ffffffffffffffffffffffffffffffffffffffff169060200190929190505050611dc7565b604051808060200180602001838103835285818151815260200191508051906020019080838360005b8381101561044957808201518184015260208101905061042e565b50505050905090810190601f1680156104765780820380516001836020036101000a031916815260200191505b50838103825284818151815260200191508051906020019080838360005b838110156104af578082015181840152602081019050610494565b50505050905090810190601f1680156104dc5780820380516001836020036101000a031916815260200191505b5094505050505060405180910390f35b3480156104f857600080fd5b506105456004803603604081101561050f57600080fd5b81019080803573ffffffffffffffffffffffffffffffffffffffff16906020019092919080359060200190929190505050611f91565b604051808060200180602001806020018060200186815260200185810385528a818151815260200191508051906020019080838360005b8381101561059757808201518184015260208101905061057c565b50505050905090810190601f1680156105c45780820380516001836020036101000a031916815260200191505b50858103845289818151815260200191508051906020019080838360005b838110156105fd5780820151818401526020810190506105e2565b50505050905090810190601f16801561062a5780820380516001836020036101000a031916815260200191505b50858103835288818151815260200191508051906020019080838360005b83811015610663578082015181840152602081019050610648565b50505050905090810190601f1680156106905780820380516001836020036101000a031916815260200191505b50858103825287818151815260200191508051906020019080838360005b838110156106c95780820151818401526020810190506106ae565b50505050905090810190601f1680156106f65780820380516001836020036101000a031916815260200191505b50995050505050505050505060405180910390f35b61074d6004803603602081101561072157600080fd5b81019080803573ffffffffffffffffffffffffffffffffffffffff169060200190929190505050612243565b005b34801561075b57600080fd5b5061079e6004803603602081101561077257600080fd5b81019080803573ffffffffffffffffffffffffffffffffffffffff1690602001909291905050506123be565b6040518080602001828103825283818151815260200191508051906020019060200280838360005b838110156107e15780820151818401526020810190506107c6565b505050509050019250505060405180910390f35b34801561080157600080fd5b506108446004803603602081101561081857600080fd5b81019080803573ffffffffffffffffffffffffffffffffffffffff169060200190929190505050612494565b60405180806020018781526020018060200180602001806020018060200186810386528c818151815260200191508051906020019080838360005b8381101561089a57808201518184015260208101905061087f565b50505050905090810190601f1680156108c75780820380516001836020036101000a031916815260200191505b5086810385528a818151815260200191508051906020019060200280838360005b838110156109035780820151818401526020810190506108e8565b50505050905001868103845289818151815260200191508051906020019060200280838360005b8381101561094557808201518184015260208101905061092a565b50505050905001868103835288818151815260200191508051906020019080838360005b83811015610984578082015181840152602081019050610969565b50505050905090810190601f1680156109b15780820380516001836020036101000a031916815260200191505b50868103825287818151815260200191508051906020019060200280838360005b838110156109ed5780820151818401526020810190506109d2565b505050509050019b50505050505050505050505060405180910390f35b610a4c60048036036020811015610a2057600080fd5b81019080803573ffffffffffffffffffffffffffffffffffffffff1690602001909291905050506128da565b005b610a9060048036036020811015610a6457600080fd5b81019080803573ffffffffffffffffffffffffffffffffffffffff169060200190929190505050612a55565b005b348015610a9e57600080fd5b50610ae160048036036020811015610ab557600080fd5b81019080803573ffffffffffffffffffffffffffffffffffffffff169060200190929190505050612ac1565b6040518080602001838152602001828103825284818151815260200191508051906020019080838360005b83811015610b27578082015181840152602081019050610b0c565b50505050905090810190601f168015610b545780820380516001836020036101000a031916815260200191505b50935050505060405180910390f35b610ba560048036036020811015610b7957600080fd5b81019080803573ffffffffffffffffffffffffffffffffffffffff169060200190929190505050612bef565b005b348015610bb357600080fd5b50610bf660048036036020811015610bca57600080fd5b81019080803573ffffffffffffffffffffffffffffffffffffffff169060200190929190505050612d6a565b6040518080602001828103825283818151815260200191508051906020019060200280838360005b83811015610c39578082015181840152602081019050610c1e565b505050509050019250505060405180910390f35b348015610c5957600080fd5b50610c8660048036036020811015610c7057600080fd5b8101908080359060200190929190505050612e3a565b604051808273ffffffffffffffffffffffffffffffffffffffff1673ffffffffffffffffffffffffffffffffffffffff16815260200191505060405180910390f35b348015610cd457600080fd5b50610d1760048036036020811015610ceb57600080fd5b81019080803573ffffffffffffffffffffffffffffffffffffffff169060200190929190505050612e78565b6040518080602001828103825283818151815260200191508051906020019080838360005b83811015610d57578082015181840152602081019050610d3c565b50505050905090810190601f168015610d845780820380516001836020036101000a031916815260200191505b509250505060405180910390f35b348015610d9e57600080fd5b50610e6260048036036040811015610db557600080fd5b8101908080359060200190640100000000811115610dd257600080fd5b820183602082011115610de457600080fd5b80359060200191846001830284011164010000000083111715610e0657600080fd5b91908080601f016020809104026020016040519081016040528093929190818152602001838380828437600081840152601f19601f82011690508083019250505050505050919291929080359060200190929190505050612f5c565b6040518080602001828103825283818151815260200191508051906020019080838360005b83811015610ea2578082015181840152602081019050610e87565b50505050905090810190601f168015610ecf5780820380516001836020036101000a031916815260200191505b509250505060405180910390f35b610f1f60048036036020811015610ef357600080fd5b81019080803573ffffffffffffffffffffffffffffffffffffffff16906020019092919050505061303d565b005b348015610f2d57600080fd5b50610f7060048036036020811015610f4457600080fd5b81019080803573ffffffffffffffffffffffffffffffffffffffff1690602001909291905050506130a9565b6040518080602001828103825283818151815260200191508051906020019060200280838360005b83811015610fb3578082015181840152602081019050610f98565b505050509050019250505060405180910390f35b348015610fd357600080fd5b5061101660048036036020811015610fea57600080fd5b81019080803573ffffffffffffffffffffffffffffffffffffffff16906020019092919050505061317f565b6040518080602001828103825283818151815260200191508051906020019080838360005b8381101561105657808201518184015260208101905061103b565b50505050905090810190601f1680156110835780820380516001836020036101000a031916815260200191505b509250505060405180910390f35b34801561109d57600080fd5b506110e0600480360360208110156110b457600080fd5b81019080803573ffffffffffffffffffffffffffffffffffffffff169060200190929190505050613263565b6040518080602001828103825283818151815260200191508051906020019080838360005b83811015611120578082015181840152602081019050611105565b50505050905090810190601f16801561114d5780820380516001836020036101000a031916815260200191505b509250505060405180910390f35b34801561116757600080fd5b50611170613347565b6040518080602001828103825283818151815260200191508051906020019060200280838360005b838110156111b3578082015181840152602081019050611198565b505050509050019250505060405180910390f35b3480156111d357600080fd5b50611200600480360360208110156111ea57600080fd5b81019080803590602001909291905050506133d5565b604051808273ffffffffffffffffffffffffffffffffffffffff1673ffffffffffffffffffffffffffffffffffffffff16815260200191505060405180910390f35b34801561124e57600080fd5b50611257613413565b6040518080602001828103825283818151815260200191508051906020019060200280838360005b8381101561129a57808201518184015260208101905061127f565b505050509050019250505060405180910390f35b611391600480360360608110156112c457600080fd5b81019080803573ffffffffffffffffffffffffffffffffffffffff169060200190929190803590602001909291908035906020019064010000000081111561130b57600080fd5b82018360208201111561131d57600080fd5b8035906020019184600183028401116401000000008311171561133f57600080fd5b91908080601f016020809104026020016040519081016040528093929190818152602001838380828437600081840152601f19601f8201169050808301925050505050505091929192905050506134a1565b005b34801561139f57600080fd5b506113cc600480360360208110156113b657600080fd5b8101908080359060200190929190505050613716565b604051808273ffffffffffffffffffffffffffffffffffffffff1673ffffffffffffffffffffffffffffffffffffffff16815260200191505060405180910390f35b34801561141a57600080fd5b506114476004803603602081101561143157600080fd5b8101908080359060200190929190505050613754565b604051808273ffffffffffffffffffffffffffffffffffffffff1673ffffffffffffffffffffffffffffffffffffffff16815260200191505060405180910390f35b34801561149557600080fd5b506114d8600480360360208110156114ac57600080fd5b81019080803573ffffffffffffffffffffffffffffffffffffffff169060200190929190505050613792565b6040518080602001828103825283818151815260200191508051906020019060200280838360005b8381101561151b578082015181840152602081019050611500565b505050509050019250505060405180910390f35b34801561153b57600080fd5b5061157e6004803603602081101561155257600080fd5b81019080803573ffffffffffffffffffffffffffffffffffffffff169060200190929190505050613862565b6040518080602001828103825283818151815260200191508051906020019060200280838360005b838110156115c15780820151818401526020810190506115a6565b505050509050019250505060405180910390f35b3480156115e157600080fd5b50611644600480360360408110156115f857600080fd5b81019080803573ffffffffffffffffffffffffffffffffffffffff169060200190929190803573ffffffffffffffffffffffffffffffffffffffff169060200190929190505050613932565b005b34801561165257600080fd5b5061165b6139ce565b6040518080602001828103825283818151815260200191508051906020019060200280838360005b8381101561169e578082015181840152602081019050611683565b505050509050019250505060405180910390f35b3480156116be57600080fd5b50611782600480360360408110156116d557600080fd5b81019080803590602001906401000000008111156116f257600080fd5b82018360208201111561170457600080fd5b8035906020019184600183028401116401000000008311171561172657600080fd5b91908080601f016020809104026020016040519081016040528093929190818152602001838380828437600081840152601f19601f82011690508083019250505050505050919291929080359060200190929190505050613a5c565b6040518080602001828103825283818151815260200191508051906020019080838360005b838110156117c25780820151818401526020810190506117a7565b50505050905090810190601f1680156117ef5780820380516001836020036101000a031916815260200191505b509250505060405180910390f35b34801561180957600080fd5b50611812613b3d565b6040518080602001828103825283818151815260200191508051906020019060200280838360005b8381101561185557808201518184015260208101905061183a565b505050509050019250505060405180910390f35b34801561187557600080fd5b506119da6004803603608081101561188c57600080fd5b81019080803590602001906401000000008111156118a957600080fd5b8201836020820111156118bb57600080fd5b803590602001918460018302840111640100000000831117156118dd57600080fd5b91908080601f016020809104026020016040519081016040528093929190818152602001838380828437600081840152601f19601f82011690508083019250505050505050919291929080359060200190929190803590602001909291908035906020019064010000000081111561195457600080fd5b82018360208201111561196657600080fd5b8035906020019184600183028401116401000000008311171561198857600080fd5b91908080601f016020809104026020016040519081016040528093929190818152602001838380828437600081840152601f19601f820116905080830192505050505050509192919290505050613bcb565b6040518080602001828103825283818151815260200191508051906020019080838360005b83811015611a1a5780820151818401526020810190506119ff565b50505050905090810190601f168015611a475780820380516001836020036101000a031916815260200191505b509250505060405180910390f35b611b3860048036036060811015611a6b57600080fd5b81019080803573ffffffffffffffffffffffffffffffffffffffff1690602001909291908035906020019092919080359060200190640100000000811115611ab257600080fd5b820183602082011115611ac457600080fd5b80359060200191846001830284011164010000000083111715611ae657600080fd5b91908080601f016020809104026020016040519081016040528093929190818152602001838380828437600081840152601f19601f820116905080830192505050505050509192919290505050613ea9565b005b348015611b4657600080fd5b50611ba960048036036040811015611b5d57600080fd5b81019080803573ffffffffffffffffffffffffffffffffffffffff169060200190929190803573ffffffffffffffffffffffffffffffffffffffff16906020019092919050505061411e565b005b60606000600660008473ffffffffffffffffffffffffffffffffffffffff1673ffffffffffffffffffffffffffffffffffffffff168152602001908152602001600020600201905080805480602002602001604051908101604052809291908181526020018280548015611c7457602002820191906000526020600020905b8160009054906101000a900473ffffffffffffffffffffffffffffffffffffffff1673ffffffffffffffffffffffffffffffffffffffff1681526020019060010190808311611c2a575b5050505050915050919050565b611c8b3382611d2b565b3373ffffffffffffffffffffffffffffffffffffffff166108fc671bc16d674ec800009081150290604051600060405180830381858888f19350505050158015611cd9573d6000803e3d6000fd5b506002600080828254039250508190555050565b600281815481101515611cfc57fe5b906000526020600020016000915054906101000a900473ffffffffffffffffffffffffffffffffffffffff1681565b611d76600a60008373ffffffffffffffffffffffffffffffffffffffff1673ffffffffffffffffffffffffffffffffffffffff168152602001908152602001600020600101836141ba565b50611dc2600660008473ffffffffffffffffffffffffffffffffffffffff1673ffffffffffffffffffffffffffffffffffffffff168152602001908152602001600020600301826141ba565b505050565b606080600660008573ffffffffffffffffffffffffffffffffffffffff1673ffffffffffffffffffffffffffffffffffffffff168152602001908152602001600020600001600760008573ffffffffffffffffffffffffffffffffffffffff1673ffffffffffffffffffffffffffffffffffffffff168152602001908152602001600020600001818054600181600116156101000203166002900480601f016020809104026020016040519081016040528092919081815260200182805460018160011615610100020316600290048015611ee35780601f10611eb857610100808354040283529160200191611ee3565b820191906000526020600020905b815481529060010190602001808311611ec657829003601f168201915b50505050509150808054600181600116156101000203166002900480601f016020809104026020016040519081016040528092919081815260200182805460018160011615610100020316600290048015611f7f5780601f10611f5457610100808354040283529160200191611f7f565b820191906000526020600020905b815481529060010190602001808311611f6257829003601f168201915b50505050509050915091509250929050565b600d60205281600052604060002081815481101515611fac57fe5b906000526020600020906005020160009150915050806000018054600181600116156101000203166002900480601f0160208091040260200160405190810160405280929190818152602001828054600181600116156101000203166002900480156120595780601f1061202e57610100808354040283529160200191612059565b820191906000526020600020905b81548152906001019060200180831161203c57829003601f168201915b505050505090806001018054600181600116156101000203166002900480601f0160208091040260200160405190810160405280929190818152602001828054600181600116156101000203166002900480156120f75780601f106120cc576101008083540402835291602001916120f7565b820191906000526020600020905b8154815290600101906020018083116120da57829003601f168201915b505050505090806002018054600181600116156101000203166002900480601f0160208091040260200160405190810160405280929190818152602001828054600181600116156101000203166002900480156121955780601f1061216a57610100808354040283529160200191612195565b820191906000526020600020905b81548152906001019060200180831161217857829003601f168201915b505050505090806003018054600181600116156101000203166002900480601f0160208091040260200160405190810160405280929190818152602001828054600181600116156101000203166002900480156122335780601f1061220857610100808354040283529160200191612233565b820191906000526020600020905b81548152906001019060200180831161221657829003601f168201915b5050505050908060040154905085565b671bc16d674ec800003414151561225957600080fd5b600260008082825401925050819055506001600960008373ffffffffffffffffffffffffffffffffffffffff1673ffffffffffffffffffffffffffffffffffffffff1681526020019081526020016000206002013390806001815401808255809150509060018203906000526020600020016000909192909190916101000a81548173ffffffffffffffffffffffffffffffffffffffff021916908373ffffffffffffffffffffffffffffffffffffffff16021790555050506001600660003373ffffffffffffffffffffffffffffffffffffffff1673ffffffffffffffffffffffffffffffffffffffff1681526020019081526020016000206004018290806001815401808255809150509060018203906000526020600020016000909192909190916101000a81548173ffffffffffffffffffffffffffffffffffffffff021916908373ffffffffffffffffffffffffffffffffffffffff160217905550505050565b60606000600660008473ffffffffffffffffffffffffffffffffffffffff1673ffffffffffffffffffffffffffffffffffffffff16815260200190815260200160002060030190508080548060200260200160405190810160405280929190818152602001828054801561248757602002820191906000526020600020905b8160009054906101000a900473ffffffffffffffffffffffffffffffffffffffff1673ffffffffffffffffffffffffffffffffffffffff168152602001906001019080831161243d575b5050505050915050919050565b60606000606080606080600660008873ffffffffffffffffffffffffffffffffffffffff1673ffffffffffffffffffffffffffffffffffffffff168152602001908152602001600020600001600660008973ffffffffffffffffffffffffffffffffffffffff1673ffffffffffffffffffffffffffffffffffffffff16815260200190815260200160002060010154600660008a73ffffffffffffffffffffffffffffffffffffffff1673ffffffffffffffffffffffffffffffffffffffff168152602001908152602001600020600501600660008b73ffffffffffffffffffffffffffffffffffffffff1673ffffffffffffffffffffffffffffffffffffffff168152602001908152602001600020600301600660008c73ffffffffffffffffffffffffffffffffffffffff1673ffffffffffffffffffffffffffffffffffffffff168152602001908152602001600020600601600660008d73ffffffffffffffffffffffffffffffffffffffff1673ffffffffffffffffffffffffffffffffffffffff168152602001908152602001600020600401858054600181600116156101000203166002900480601f0160208091040260200160405190810160405280929190818152602001828054600181600116156101000203166002900480156126c05780601f10612695576101008083540402835291602001916126c0565b820191906000526020600020905b8154815290600101906020018083116126a357829003601f168201915b505050505095508380548060200260200160405190810160405280929190818152602001828054801561271257602002820191906000526020600020905b8154815260200190600101908083116126fe575b505050505093508280548060200260200160405190810160405280929190818152602001828054801561279a57602002820191906000526020600020905b8160009054906101000a900473ffffffffffffffffffffffffffffffffffffffff1673ffffffffffffffffffffffffffffffffffffffff1681526020019060010190808311612750575b50505050509250818054600181600116156101000203166002900480601f0160208091040260200160405190810160405280929190818152602001828054600181600116156101000203166002900480156128365780601f1061280b57610100808354040283529160200191612836565b820191906000526020600020905b81548152906001019060200180831161281957829003601f168201915b50505050509150808054806020026020016040519081016040528092919081815260200182805480156128be57602002820191906000526020600020905b8160009054906101000a900473ffffffffffffffffffffffffffffffffffffffff1673ffffffffffffffffffffffffffffffffffffffff1681526020019060010190808311612874575b5050505050905095509550955095509550955091939550919395565b671bc16d674ec80000341415156128f057600080fd5b600260008082825401925050819055506001600a60008373ffffffffffffffffffffffffffffffffffffffff1673ffffffffffffffffffffffffffffffffffffffff1681526020019081526020016000206001013390806001815401808255809150509060018203906000526020600020016000909192909190916101000a81548173ffffffffffffffffffffffffffffffffffffffff021916908373ffffffffffffffffffffffffffffffffffffffff16021790555050506001600660003373ffffffffffffffffffffffffffffffffffffffff1673ffffffffffffffffffffffffffffffffffffffff1681526020019081526020016000206003018290806001815401808255809150509060018203906000526020600020016000909192909190916101000a81548173ffffffffffffffffffffffffffffffffffffffff021916908373ffffffffffffffffffffffffffffffffffffffff160217905550505050565b612a5f338261411e565b3373ffffffffffffffffffffffffffffffffffffffff166108fc671bc16d674ec800009081150290604051600060405180830381858888f19350505050158015612aad573d6000803e3d6000fd5b506002600080828254039250508190555050565b60606000600760008473ffffffffffffffffffffffffffffffffffffffff1673ffffffffffffffffffffffffffffffffffffffff168152602001908152602001600020600001600760008573ffffffffffffffffffffffffffffffffffffffff1673ffffffffffffffffffffffffffffffffffffffff16815260200190815260200160002060010154818054600181600116156101000203166002900480601f016020809104026020016040519081016040528092919081815260200182805460018160011615610100020316600290048015612bdf5780601f10612bb457610100808354040283529160200191612bdf565b820191906000526020600020905b815481529060010190602001808311612bc257829003601f168201915b5050505050915091509150915091565b671bc16d674ec8000034141515612c0557600080fd5b600260008082825401925050819055506001600760008373ffffffffffffffffffffffffffffffffffffffff1673ffffffffffffffffffffffffffffffffffffffff1681526020019081526020016000206002013390806001815401808255809150509060018203906000526020600020016000909192909190916101000a81548173ffffffffffffffffffffffffffffffffffffffff021916908373ffffffffffffffffffffffffffffffffffffffff16021790555050506001600660003373ffffffffffffffffffffffffffffffffffffffff1673ffffffffffffffffffffffffffffffffffffffff1681526020019081526020016000206002018290806001815401808255809150509060018203906000526020600020016000909192909190916101000a81548173ffffffffffffffffffffffffffffffffffffffff021916908373ffffffffffffffffffffffffffffffffffffffff160217905550505050565b6060600960008373ffffffffffffffffffffffffffffffffffffffff1673ffffffffffffffffffffffffffffffffffffffff168152602001908152602001600020600201805480602002602001604051908101604052809291908181526020018280548015612e2e57602002820191906000526020600020905b8160009054906101000a900473ffffffffffffffffffffffffffffffffffffffff1673ffffffffffffffffffffffffffffffffffffffff1681526020019060010190808311612de4575b50505050509050919050565b600581815481101515612e4957fe5b906000526020600020016000915054906101000a900473ffffffffffffffffffffffffffffffffffffffff1681565b6060600660008373ffffffffffffffffffffffffffffffffffffffff1673ffffffffffffffffffffffffffffffffffffffff1681526020019081526020016000206006018054600181600116156101000203166002900480601f016020809104026020016040519081016040528092919081815260200182805460018160011615610100020316600290048015612f505780601f10612f2557610100808354040283529160200191612f50565b820191906000526020600020905b815481529060010190602001808311612f3357829003601f168201915b50505050509050919050565b6060600033905060028314156130315783600a60008373ffffffffffffffffffffffffffffffffffffffff1673ffffffffffffffffffffffffffffffffffffffff1681526020019081526020016000206000019080519060200190612fc2929190614404565b50600160058290806001815401808255809150509060018203906000526020600020016000909192909190916101000a81548173ffffffffffffffffffffffffffffffffffffffff021916908373ffffffffffffffffffffffffffffffffffffffff1602179055505050613036565b600080fd5b5092915050565b6130473382613932565b3373ffffffffffffffffffffffffffffffffffffffff166108fc671bc16d674ec800009081150290604051600060405180830381858888f19350505050158015613095573d6000803e3d6000fd5b506002600080828254039250508190555050565b60606000600660008473ffffffffffffffffffffffffffffffffffffffff1673ffffffffffffffffffffffffffffffffffffffff16815260200190815260200160002060040190508080548060200260200160405190810160405280929190818152602001828054801561317257602002820191906000526020600020905b8160009054906101000a900473ffffffffffffffffffffffffffffffffffffffff1673ffffffffffffffffffffffffffffffffffffffff1681526020019060010190808311613128575b5050505050915050919050565b6060600960008373ffffffffffffffffffffffffffffffffffffffff1673ffffffffffffffffffffffffffffffffffffffff1681526020019081526020016000206000018054600181600116156101000203166002900480601f0160208091040260200160405190810160405280929190818152602001828054600181600116156101000203166002900480156132575780601f1061322c57610100808354040283529160200191613257565b820191906000526020600020905b81548152906001019060200180831161323a57829003601f168201915b50505050509050919050565b6060600a60008373ffffffffffffffffffffffffffffffffffffffff1673ffffffffffffffffffffffffffffffffffffffff1681526020019081526020016000206000018054600181600116156101000203166002900480601f01602080910402602001604051908101604052809291908181526020018280546001816001161561010002031660029004801561333b5780601f106133105761010080835404028352916020019161333b565b820191906000526020600020905b81548152906001019060200180831161331e57829003601f168201915b50505050509050919050565b606060048054806020026020016040519081016040528092919081815260200182805480156133cb57602002820191906000526020600020905b8160009054906101000a900473ffffffffffffffffffffffffffffffffffffffff1673ffffffffffffffffffffffffffffffffffffffff1681526020019060010190808311613381575b5050505050905090565b6001818154811015156133e457fe5b906000526020600020016000915054906101000a900473ffffffffffffffffffffffffffffffffffffffff1681565b6060600280548060200260200160405190810160405280929190818152602001828054801561349757602002820191906000526020600020905b8160009054906101000a900473ffffffffffffffffffffffffffffffffffffffff1673ffffffffffffffffffffffffffffffffffffffff168152602001906001019080831161344d575b5050505050905090565b600080905060008090505b600960003373ffffffffffffffffffffffffffffffffffffffff1673ffffffffffffffffffffffffffffffffffffffff16815260200190815260200160002060020180549050811015613617578473ffffffffffffffffffffffffffffffffffffffff16600960003373ffffffffffffffffffffffffffffffffffffffff1673ffffffffffffffffffffffffffffffffffffffff1681526020019081526020016000206002018281548110151561355f57fe5b9060005260206000200160009054906101000a900473ffffffffffffffffffffffffffffffffffffffff1673ffffffffffffffffffffffffffffffffffffffff16141561360a573373ffffffffffffffffffffffffffffffffffffffff166108fc671bc16d674ec800009081150290604051600060405180830381858888f193505050501580156135f4573d6000803e3d6000fd5b5060026000808282540392505081905550600191505b80806001019150506134ac565b5060011515811515141561363e5761362f84836143a9565b613639843361411e565b613643565b600080fd5b600080905060008090505b600660008773ffffffffffffffffffffffffffffffffffffffff1673ffffffffffffffffffffffffffffffffffffffff1681526020019081526020016000206005018054905081101561370e5784600660008873ffffffffffffffffffffffffffffffffffffffff1673ffffffffffffffffffffffffffffffffffffffff168152602001908152602001600020600501828154811015156136eb57fe5b9060005260206000200154141561370157600191505b808060010191505061364e565b505050505050565b60038181548110151561372557fe5b906000526020600020016000915054906101000a900473ffffffffffffffffffffffffffffffffffffffff1681565b60048181548110151561376357fe5b906000526020600020016000915054906101000a900473ffffffffffffffffffffffffffffffffffffffff1681565b6060600a60008373ffffffffffffffffffffffffffffffffffffffff1673ffffffffffffffffffffffffffffffffffffffff16815260200190815260200160002060010180548060200260200160405190810160405280929190818152602001828054801561385657602002820191906000526020600020905b8160009054906101000a900473ffffffffffffffffffffffffffffffffffffffff1673ffffffffffffffffffffffffffffffffffffffff168152602001906001019080831161380c575b50505050509050919050565b6060600760008373ffffffffffffffffffffffffffffffffffffffff1673ffffffffffffffffffffffffffffffffffffffff16815260200190815260200160002060020180548060200260200160405190810160405280929190818152602001828054801561392657602002820191906000526020600020905b8160009054906101000a900473ffffffffffffffffffffffffffffffffffffffff1673ffffffffffffffffffffffffffffffffffffffff16815260200190600101908083116138dc575b50505050509050919050565b61397d600760008373ffffffffffffffffffffffffffffffffffffffff1673ffffffffffffffffffffffffffffffffffffffff168152602001908152602001600020600201836141ba565b506139c9600660008473ffffffffffffffffffffffffffffffffffffffff1673ffffffffffffffffffffffffffffffffffffffff168152602001908152602001600020600201826141ba565b505050565b60606001805480602002602001604051908101604052809291908181526020018280548015613a5257602002820191906000526020600020905b8160009054906101000a900473ffffffffffffffffffffffffffffffffffffffff1673ffffffffffffffffffffffffffffffffffffffff1681526020019060010190808311613a08575b5050505050905090565b606060003390506003831415613b315783600960008373ffffffffffffffffffffffffffffffffffffffff1673ffffffffffffffffffffffffffffffffffffffff1681526020019081526020016000206000019080519060200190613ac2929190614404565b50600160048290806001815401808255809150509060018203906000526020600020016000909192909190916101000a81548173ffffffffffffffffffffffffffffffffffffffff021916908373ffffffffffffffffffffffffffffffffffffffff1602179055505050613b36565b600080fd5b5092915050565b60606005805480602002602001604051908101604052809291908181526020018280548015613bc157602002820191906000526020600020905b8160009054906101000a900473ffffffffffffffffffffffffffffffffffffffff1673ffffffffffffffffffffffffffffffffffffffff1681526020019060010190808311613b77575b5050505050905090565b606060003390506000841415613d8557613be3614484565b86816000018190525085816020018181525050838160c0018190525080600660003373ffffffffffffffffffffffffffffffffffffffff1673ffffffffffffffffffffffffffffffffffffffff1681526020019081526020016000206000820151816000019080519060200190613c5b9291906144ca565b50602082015181600101556040820151816002019080519060200190613c8292919061454a565b506060820151816003019080519060200190613c9f92919061454a565b506080820151816004019080519060200190613cbc92919061454a565b5060a0820151816005019080519060200190613cd99291906145d4565b5060c0820151816006019080519060200190613cf69291906144ca565b5060e0820151816007019080519060200190613d13929190614621565b509050506001808390806001815401808255809150509060018203906000526020600020016000909192909190916101000a81548173ffffffffffffffffffffffffffffffffffffffff021916908373ffffffffffffffffffffffffffffffffffffffff160217905550505050613ea0565b6001841415613e9a5785600760008373ffffffffffffffffffffffffffffffffffffffff1673ffffffffffffffffffffffffffffffffffffffff1681526020019081526020016000206000019080519060200190613de4929190614404565b5084600760008373ffffffffffffffffffffffffffffffffffffffff1673ffffffffffffffffffffffffffffffffffffffff16815260200190815260200160002060010181905550600160028290806001815401808255809150509060018203906000526020600020016000909192909190916101000a81548173ffffffffffffffffffffffffffffffffffffffff021916908373ffffffffffffffffffffffffffffffffffffffff1602179055505050613e9f565b600080fd5b5b50949350505050565b600080905060008090505b600760003373ffffffffffffffffffffffffffffffffffffffff1673ffffffffffffffffffffffffffffffffffffffff1681526020019081526020016000206002018054905081101561401f578473ffffffffffffffffffffffffffffffffffffffff16600760003373ffffffffffffffffffffffffffffffffffffffff1673ffffffffffffffffffffffffffffffffffffffff16815260200190815260200160002060020182815481101515613f6757fe5b9060005260206000200160009054906101000a900473ffffffffffffffffffffffffffffffffffffffff1673ffffffffffffffffffffffffffffffffffffffff161415614012573373ffffffffffffffffffffffffffffffffffffffff166108fc671bc16d674ec800009081150290604051600060405180830381858888f19350505050158015613ffc573d6000803e3d6000fd5b5060026000808282540392505081905550600191505b8080600101915050613eb4565b506001151581151514156140465761403784836143a9565b6140418433613932565b61404b565b600080fd5b600080905060008090505b600660008773ffffffffffffffffffffffffffffffffffffffff1673ffffffffffffffffffffffffffffffffffffffff168152602001908152602001600020600501805490508110156141165784600660008873ffffffffffffffffffffffffffffffffffffffff1673ffffffffffffffffffffffffffffffffffffffff168152602001908152602001600020600501828154811015156140f357fe5b9060005260206000200154141561410957600191505b8080600101915050614056565b505050505050565b614169600960008373ffffffffffffffffffffffffffffffffffffffff1673ffffffffffffffffffffffffffffffffffffffff168152602001908152602001600020600201836141ba565b506141b5600660008473ffffffffffffffffffffffffffffffffffffffff1673ffffffffffffffffffffffffffffffffffffffff168152602001908152602001600020600401826141ba565b505050565b60008060009050600080905060008090505b8580549050811015614259578473ffffffffffffffffffffffffffffffffffffffff1686828154811015156141fd57fe5b9060005260206000200160009054906101000a900473ffffffffffffffffffffffffffffffffffffffff1673ffffffffffffffffffffffffffffffffffffffff16141561424c57600192508091505b80806001019150506141cc565b5081151561426657600080fd5b6001858054905014156142b357848181548110151561428157fe5b9060005260206000200160006101000a81549073ffffffffffffffffffffffffffffffffffffffff021916905561438c565b8460018680549050038154811015156142c857fe5b9060005260206000200160009054906101000a900473ffffffffffffffffffffffffffffffffffffffff16858281548110151561430157fe5b9060005260206000200160006101000a81548173ffffffffffffffffffffffffffffffffffffffff021916908373ffffffffffffffffffffffffffffffffffffffff16021790555084600186805490500381548110151561435e57fe5b9060005260206000200160006101000a81549073ffffffffffffffffffffffffffffffffffffffff02191690555b848054809190600190036143a0919061466e565b50505092915050565b80600660008473ffffffffffffffffffffffffffffffffffffffff1673ffffffffffffffffffffffffffffffffffffffff16815260200190815260200160002060060190805190602001906143ff929190614404565b505050565b828054600181600116156101000203166002900490600052602060002090601f016020900481019282601f1061444557805160ff1916838001178555614473565b82800160010185558215614473579182015b82811115614472578251825591602001919060010190614457565b5b509050614480919061469a565b5090565b6101006040519081016040528060608152602001600081526020016060815260200160608152602001606081526020016060815260200160608152602001606081525090565b828054600181600116156101000203166002900490600052602060002090601f016020900481019282601f1061450b57805160ff1916838001178555614539565b82800160010185558215614539579182015b8281111561453857825182559160200191906001019061451d565b5b509050614546919061469a565b5090565b8280548282559060005260206000209081019282156145c3579160200282015b828111156145c25782518260006101000a81548173ffffffffffffffffffffffffffffffffffffffff021916908373ffffffffffffffffffffffffffffffffffffffff1602179055509160200191906001019061456a565b5b5090506145d091906146bf565b5090565b828054828255906000526020600020908101928215614610579160200282015b8281111561460f5782518255916020019190600101906145f4565b5b50905061461d919061469a565b5090565b82805482825590600052602060002090810192821561465d579160200282015b8281111561465c578251825591602001919060010190614641565b5b50905061466a9190614702565b5090565b81548183558181111561469557818360005260206000209182019101614694919061469a565b5b505050565b6146bc91905b808211156146b85760008160009055506001016146a0565b5090565b90565b6146ff91905b808211156146fb57600081816101000a81549073ffffffffffffffffffffffffffffffffffffffff0219169055506001016146c5565b5090565b90565b61472491905b80821115614720576000816000905550600101614708565b5090565b9056fea165627a7a72305820571db468daec10936112b5faf88ab255eaab15999c70f63f5d2c60c3929d516e0029",
  "source": "pragma solidity >=0.5.1;\n// import './IPFS.sol';\n\ncontract Agent {\n    // IPFS ipfs;\n\n    // constructor() public {\n    //     ipfs = new IPFS();\n    // }\n    \n    struct patient {\n        string name;\n        uint age;\n        address[] doctorAccessList;\n        address[] insurerAccessList;\n        address[] laboratoryAccessList;\n        uint[] diagnosis;\n        string record;\n        bytes32[] files;\n    }\n    \n    struct doctor {\n        string name;\n        uint age;\n        address[] patientAccessList;\n    }\n\n    struct hospital {\n        string name;\n        string location;\n        address[] doctorEmployeeList;\n        address[] patientCustomerList;\n    }\n\n    struct laboratory {\n        string name;\n        string hospitalName;\n        address[] patientAccessList;\n    }\n\n    struct insurer {\n        string name;\n        // address[] patientInsuredList;\n        address[] patientAccessList;\n    }\n\n    struct Image {\n        string ipfsHash;        // IPFS hash\n        string title;           // Image title\n        string description;     // Image description\n        string tags;            // Image tags in comma separated format\n        uint256 uploadedOn;     // Uploaded timestamp\n    }\n\n    uint creditPool;\n\n    address[] public patientList;\n    address[] public doctorList;\n    address[] public hospitalList;\n    address[] public laboratoryList;\n    address[] public insurerList;\n\n    mapping (address => patient) patientInfo;\n    mapping (address => doctor) doctorInfo;\n    mapping (address => hospital) hospitalInfo;\n    mapping (address => laboratory) laboratoryInfo;\n    mapping (address => insurer) insurerInfo;\n    mapping (address => address) Empty;\n    // might not be necessary\n    mapping (address => string) patientRecords;\n    mapping (address => Image[]) public patientToImages;\n    \n\n\n    function add_agent(string memory _name, uint _age, uint _designation, string memory _hash) public returns(string memory){\n        address addr = msg.sender;\n        \n        if(_designation == 0){ //patient\n            patient memory p;\n            p.name = _name;\n            p.age = _age;\n            p.record = _hash;\n            patientInfo[msg.sender] = p;\n            patientList.push(addr)-1;\n           \n        }\n       else if (_designation == 1){ //doctor\n            doctorInfo[addr].name = _name;\n            doctorInfo[addr].age = _age;\n            doctorList.push(addr)-1;\n            \n       } \n       else{\n           revert();\n       }\n    }\n\n    function add_insurer(string memory _name, uint _designation) public returns(string memory){\n        address addr = msg.sender;\n        if(_designation == 2){ \n            insurerInfo[addr].name = _name;\n            insurerList.push(addr)-1;\n        } else{\n           revert();\n       }\n    }\n\n    function add_laboratory(string memory _name, uint _designation) public returns(string memory){\n        address addr = msg.sender;\n        if(_designation == 3){ \n            laboratoryInfo[addr].name = _name;\n            laboratoryList.push(addr)-1;\n        } else{\n           revert();\n       }\n    }\n\n\n    function get_patient(address addr) view public returns (string memory , uint, uint[] memory, address[] memory, string memory, address[] memory){\n        // if(keccak256(patientInfo[addr].name) == keccak256(\"\"))revert();\n        return (patientInfo[addr].name, patientInfo[addr].age, patientInfo[addr].diagnosis, patientInfo[addr].insurerAccessList, patientInfo[addr].record, patientInfo[addr].laboratoryAccessList);\n    }\n\n    function get_doctor(address addr) view public returns (string memory , uint){\n        // if(keccak256(doctorInfo[addr].name)==keccak256(\"\"))revert();\n        return (doctorInfo[addr].name, doctorInfo[addr].age);\n    }\n\n    function get_insurer(address addr) view public returns (string memory){\n        // if(keccak256(insurerInfo[addr].name) == keccak256(\"\"))revert();\n        return (insurerInfo[addr].name);\n    }\n\n    function get_laboratory(address addr) view public returns (string memory){\n        // if(keccak256(insurerInfo[addr].name) == keccak256(\"\"))revert();\n        return (laboratoryInfo[addr].name);\n    }\n\n\n    function get_patient_doctor_name(address paddr, address daddr) view public returns (string memory , string memory ){\n        return (patientInfo[paddr].name,doctorInfo[daddr].name);\n    }\n\n    // event ExecutionTime(uint256 executionTime);\n\n    function permit_access_to_doctor(address addr) payable public {\n        // uint256 startGas = gasleft();\n        require(msg.value == 2 ether);\n         \n        creditPool += 2;\n        \n        doctorInfo[addr].patientAccessList.push(msg.sender)-1;\n        patientInfo[msg.sender].doctorAccessList.push(addr)-1;\n    //     uint256 endGas = gasleft(); // Get the gas remaining after executing the function\n    //     uint256 gasUsed = startGas - endGas; // Calculate the gas used\n    // uint256 executionTime = gasUsed / tx.gasprice; // Calculate the execution time in seconds\n\n    // emit ExecutionTime(executionTime);\n        \n    }\n\n    function permit_access_to_insurer(address addr) payable public {\n        require(msg.value == 2 ether);\n        creditPool += 2;\n        insurerInfo[addr].patientAccessList.push(msg.sender)-1;\n        patientInfo[msg.sender].insurerAccessList.push(addr)-1; \n    }\n\n    function permit_access_to_laboratory(address addr) payable public {\n        require(msg.value == 2 ether);\n        creditPool += 2;\n        laboratoryInfo[addr].patientAccessList.push(msg.sender)-1;\n        patientInfo[msg.sender].laboratoryAccessList.push(addr)-1; \n    }\n\n    //must be called by doctor\n    function insurance_claim(address paddr, uint _diagnosis, string memory  _hash) public payable {\n        bool patientFound = false;\n        for(uint i = 0;i<doctorInfo[msg.sender].patientAccessList.length;i++){\n            if(doctorInfo[msg.sender].patientAccessList[i]==paddr){\n                msg.sender.transfer(2 ether);\n                creditPool -= 2;\n                patientFound = true;\n                \n            }\n            \n        }\n        if(patientFound==true){\n            set_hash(paddr, _hash);\n            remove_patient_for_doctor(paddr, msg.sender);\n        }else {\n            revert();\n        }\n\n        bool DiagnosisFound = false;\n        for(uint j = 0; j < patientInfo[paddr].diagnosis.length;j++){\n            if(patientInfo[paddr].diagnosis[j] == _diagnosis)DiagnosisFound = true;\n        }\n    }\n\n    //must be called by doctor\n    function insurance_claim_for_lab(address paddr, uint _diagnosis, string memory  _hash) public payable {\n        bool patientFound = false;\n        for(uint i = 0;i<laboratoryInfo[msg.sender].patientAccessList.length;i++){\n            if(laboratoryInfo[msg.sender].patientAccessList[i]==paddr){\n                msg.sender.transfer(2 ether);\n                creditPool -= 2;\n                patientFound = true;\n                \n            }\n            \n        }\n        if(patientFound==true){\n            set_hash(paddr, _hash);\n            remove_patient_for_laboratory(paddr, msg.sender);\n        }else {\n            revert();\n        }\n\n        bool DiagnosisFound = false;\n        for(uint j = 0; j < patientInfo[paddr].diagnosis.length;j++){\n            if(patientInfo[paddr].diagnosis[j] == _diagnosis)DiagnosisFound = true;\n        }\n    }\n\n    function remove_element_in_array(address[] storage Array, address addr) internal returns(uint)\n    {\n        bool check = false;\n        uint del_index = 0;\n        for(uint i = 0; i<Array.length; i++){\n            if(Array[i] == addr){\n                check = true;\n                del_index = i;\n            }\n        }\n        if(!check) revert();\n        else{\n            if(Array.length == 1){\n                delete Array[del_index];\n            }\n            else {\n                Array[del_index] = Array[Array.length - 1];\n                delete Array[Array.length - 1];\n\n            }\n            Array.length--;\n        }\n    }\n\n    function remove_patient_for_doctor(address paddr, address daddr) public {\n        remove_element_in_array(doctorInfo[daddr].patientAccessList, paddr);\n        remove_element_in_array(patientInfo[paddr].doctorAccessList, daddr);\n    }\n\n    function remove_patient_for_insurer(address paddr, address daddr) public {\n        remove_element_in_array(insurerInfo[daddr].patientAccessList, paddr);\n        remove_element_in_array(patientInfo[paddr].insurerAccessList, daddr);\n    }\n\n    function remove_patient_for_laboratory(address paddr, address daddr) public {\n        remove_element_in_array(laboratoryInfo[daddr].patientAccessList, paddr);\n        remove_element_in_array(patientInfo[paddr].laboratoryAccessList, daddr);\n    }\n    \n    function get_accessed_doctorlist_for_patient(address addr) public view returns (address[] memory )\n    { \n        address[] storage doctoraddr = patientInfo[addr].doctorAccessList;\n        return doctoraddr;\n    }\n    function get_accessed_patientlist_for_doctor(address addr) public view returns (address[] memory )\n    {\n        return doctorInfo[addr].patientAccessList;\n    }\n    function get_accessed_patientlist_for_insurer(address addr) public view returns (address[] memory )\n    { \n        return insurerInfo[addr].patientAccessList;\n    }\n    function get_accessed_insurerlist_for_patient(address addr) public view returns (address[] memory )\n    { \n        address[] storage insureraddr = patientInfo[addr].insurerAccessList;\n        return insureraddr;\n    }\n    function get_accessed_patientlist_for_laboratory(address addr) public view returns (address[] memory )\n    { \n        return laboratoryInfo[addr].patientAccessList;\n    }\n    function get_accessed_laboratorylist_for_patient(address addr) public view returns (address[] memory )\n    { \n        address[] storage laboratoryaddr = patientInfo[addr].laboratoryAccessList;\n        return laboratoryaddr;\n    }\n\n    \n    function revoke_access_for_doctor(address daddr) public payable{\n        remove_patient_for_doctor(msg.sender,daddr);\n        msg.sender.transfer(2 ether);\n        creditPool -= 2;\n    }\n    function revoke_access_for_insurer(address daddr) public payable{\n        remove_patient_for_insurer(msg.sender,daddr);\n        msg.sender.transfer(2 ether);\n        creditPool -= 2;\n    }\n    function revoke_access_for_laboratory(address daddr) public payable{\n        remove_patient_for_laboratory(msg.sender,daddr);\n        msg.sender.transfer(2 ether);\n        creditPool -= 2;\n    }\n\n    function get_patient_list() public view returns(address[] memory ){\n        return patientList;\n    }\n\n    function get_doctor_list() public view returns(address[] memory ){\n        return doctorList;\n    }\n    function get_insurer_list() public view returns(address[] memory ){\n        return insurerList;\n    }\n    function get_laboratory_list() public view returns(address[] memory ){\n        return laboratoryList;\n    }\n\n    function get_hash(address paddr) public view returns(string memory ){\n        return patientInfo[paddr].record;\n    }\n\n    function set_hash(address paddr, string memory _hash) internal {\n        patientInfo[paddr].record = _hash;\n    }\n\n    function findIndex(address[] memory list, address val) internal pure returns (uint256) {\n        for (uint256 i = 0; i < list.length; i++) {\n            if (list[i] == val) {\n                return i;\n            }\n        }\n        return uint256(-1);\n    }\n\n}\n\n",
  "sourcePath": "D:\\rujul\\sem6\\tarp\\MER-BLOCKCHAIN\\app\\contracts\\Agent.sol",
  "compiler": {
    "name": "solc",
    "version": "0.5.1+commit.c8a2cb62.Emscripten.clang"
  },
  "schemaVersion": "3.0.23",
  "updatedAt": "2023-04-12T17:37:39.433Z",
  "networkType": "ethereum",
  "devdoc": {
    "methods": {}
  },
  "userdoc": {
    "methods": {}
  }
}