{
  "contractName": "IPFSFileStorage",
  "abi": [
    {
      "inputs": [
        {
          "name": "_ipfsAddress",
          "type": "address"
        }
      ],
      "payable": false,
      "stateMutability": "nonpayable",
      "type": "constructor"
    },
    {
      "constant": false,
      "inputs": [
        {
          "name": "data",
          "type": "bytes"
        }
      ],
      "name": "addFile",
      "outputs": [
        {
          "name": "",
          "type": "bytes32"
        }
      ],
      "payable": false,
      "stateMutability": "nonpayable",
      "type": "function"
    },
    {
      "constant": false,
      "inputs": [
        {
          "name": "ipfsHash",
          "type": "bytes32"
        }
      ],
      "name": "removeFile",
      "outputs": [],
      "payable": false,
      "stateMutability": "nonpayable",
      "type": "function"
    },
    {
      "constant": true,
      "inputs": [
        {
          "name": "ipfsHash",
          "type": "bytes32"
        }
      ],
      "name": "getFile",
      "outputs": [
        {
          "name": "",
          "type": "bytes"
        }
      ],
      "payable": false,
      "stateMutability": "view",
      "type": "function"
    }
  ],
  "bytecode": "0x608060405234801561001057600080fd5b506040516020806107c68339810180604052602081101561003057600080fd5b8101908080519060200190929190505050806000806101000a81548173ffffffffffffffffffffffffffffffffffffffff021916908373ffffffffffffffffffffffffffffffffffffffff16021790555050610735806100916000396000f3fe608060405260043610610051576000357c0100000000000000000000000000000000000000000000000000000000900480630bef429b14610056578063473aa2a5146100915780634fdd04b814610145575b600080fd5b34801561006257600080fd5b5061008f6004803603602081101561007957600080fd5b8101908080359060200190929190505050610221565b005b34801561009d57600080fd5b506100ca600480360360208110156100b457600080fd5b81019080803590602001909291905050506103d8565b6040518080602001828103825283818151815260200191508051906020019080838360005b8381101561010a5780820151818401526020810190506100ef565b50505050905090810190601f1680156101375780820380516001836020036101000a031916815260200191505b509250505060405180910390f35b34801561015157600080fd5b5061020b6004803603602081101561016857600080fd5b810190808035906020019064010000000081111561018557600080fd5b82018360208201111561019757600080fd5b803590602001918460018302840111640100000000831117156101b957600080fd5b91908080601f016020809104026020016040519081016040528093929190818152602001838380828437600081840152601f19601f820116905080830192505050505050509192919290505050610500565b6040518082815260200191505060405180910390f35b3373ffffffffffffffffffffffffffffffffffffffff166001600083815260200190815260200160002060009054906101000a900473ffffffffffffffffffffffffffffffffffffffff1673ffffffffffffffffffffffffffffffffffffffff161415156102f7576040517f08c379a00000000000000000000000000000000000000000000000000000000081526004018080602001828103825260178152602001807f596f7520646f6e2774206f776e20746869732066696c6500000000000000000081525060200191505060405180910390fd5b6000809054906101000a900473ffffffffffffffffffffffffffffffffffffffff1673ffffffffffffffffffffffffffffffffffffffff166395bc2673826040518263ffffffff167c010000000000000000000000000000000000000000000000000000000002815260040180828152602001915050600060405180830381600087803b15801561038757600080fd5b505af115801561039b573d6000803e3d6000fd5b505050506001600082815260200190815260200160002060006101000a81549073ffffffffffffffffffffffffffffffffffffffff021916905550565b60606000809054906101000a900473ffffffffffffffffffffffffffffffffffffffff1673ffffffffffffffffffffffffffffffffffffffff16636a31e3e6836040518263ffffffff167c01000000000000000000000000000000000000000000000000000000000281526004018082815260200191505060006040518083038186803b15801561046857600080fd5b505afa15801561047c573d6000803e3d6000fd5b505050506040513d6000823e3d601f19601f8201168201806040525060208110156104a657600080fd5b8101908080516401000000008111156104be57600080fd5b828101905060208101848111156104d457600080fd5b81518560018202830111640100000000821117156104f157600080fd5b50509291905050509050919050565b600080825111151561057a576040517f08c379a000000000000000000000000000000000000000000000000000000000815260040180806020018281038252600f8152602001807f456d7074792066696c652064617461000000000000000000000000000000000081525060200191505060405180910390fd5b60008060009054906101000a900473ffffffffffffffffffffffffffffffffffffffff1673ffffffffffffffffffffffffffffffffffffffff1663ba658111846040518263ffffffff167c01000000000000000000000000000000000000000000000000000000000281526004018080602001828103825283818151815260200191508051906020019080838360005b8381101561062557808201518184015260208101905061060a565b50505050905090810190601f1680156106525780820380516001836020036101000a031916815260200191505b5092505050602060405180830381600087803b15801561067157600080fd5b505af1158015610685573d6000803e3d6000fd5b505050506040513d602081101561069b57600080fd5b81019080805190602001909291905050509050336001600083815260200190815260200160002060006101000a81548173ffffffffffffffffffffffffffffffffffffffff021916908373ffffffffffffffffffffffffffffffffffffffff1602179055508091505091905056fea165627a7a72305820b64d59333978cdc6f8b2f66279c6c02ba891e1be7aab465a2d914b239ae144d60029",
  "source": "pragma solidity >=0.5.1;\r\n\r\ninterface IPFS {\r\n    function add(bytes calldata data) external returns (bytes32);\r\n    function cat(bytes32 ipfsHash) external view returns (bytes memory);\r\n    function remove(bytes32 ipfsHash) external;\r\n}\r\n\r\ncontract IPFSFileStorage {\r\n    IPFS private ipfs;\r\n    mapping (bytes32 => address) private fileOwners;\r\n    \r\n    constructor(address _ipfsAddress) public {\r\n        ipfs = IPFS(_ipfsAddress);\r\n    }\r\n    \r\n    function addFile(bytes memory data) public returns (bytes32) {\r\n        require(data.length > 0, \"Empty file data\");\r\n        \r\n        bytes32 hash = ipfs.add(data);\r\n        fileOwners[hash] = msg.sender;\r\n        \r\n        return hash;\r\n    }\r\n    \r\n    function removeFile(bytes32 ipfsHash) public {\r\n        require(fileOwners[ipfsHash] == msg.sender, \"You don't own this file\");\r\n        \r\n        ipfs.remove(ipfsHash);\r\n        delete fileOwners[ipfsHash];\r\n    }\r\n    \r\n    function getFile(bytes32 ipfsHash) public view returns (bytes memory) {\r\n        return ipfs.cat(ipfsHash);\r\n    }\r\n}\r\n",
  "sourcePath": "D:\\rujul\\sem6\\tarp\\MER-BLOCKCHAIN\\app\\contracts\\IPFS.sol",
  "compiler": {
    "name": "solc",
    "version": "0.5.1+commit.c8a2cb62.Emscripten.clang"
  },
  "schemaVersion": "3.0.23",
  "updatedAt": "2023-04-08T21:19:35.699Z",
  "devdoc": {
    "methods": {}
  },
  "userdoc": {
    "methods": {}
  }
}