{
  "contractName": "SimpleStorage",
  "abi": [
    {
      "inputs": [
        {
          "name": "x",
          "type": "string"
        }
      ],
      "payable": false,
      "stateMutability": "nonpayable",
      "type": "constructor"
    },
    {
      "constant": false,
      "inputs": [
        {
          "name": "x",
          "type": "string"
        }
      ],
      "name": "set",
      "outputs": [],
      "payable": false,
      "stateMutability": "nonpayable",
      "type": "function"
    },
    {
      "constant": true,
      "inputs": [],
      "name": "get",
      "outputs": [
        {
          "name": "",
          "type": "string"
        }
      ],
      "payable": false,
      "stateMutability": "view",
      "type": "function"
    }
  ],
  "bytecode": "0x608060405234801561001057600080fd5b506040516104873803806104878339810180604052602081101561003357600080fd5b81019080805164010000000081111561004b57600080fd5b8281019050602081018481111561006157600080fd5b815185600182028301116401000000008211171561007e57600080fd5b5050929190505050806000908051906020019061009c9291906100a3565b5050610148565b828054600181600116156101000203166002900490600052602060002090601f016020900481019282601f106100e457805160ff1916838001178555610112565b82800160010185558215610112579182015b828111156101115782518255916020019190600101906100f6565b5b50905061011f9190610123565b5090565b61014591905b80821115610141576000816000905550600101610129565b5090565b90565b610330806101576000396000f3fe608060405260043610610046576000357c0100000000000000000000000000000000000000000000000000000000900480634ed3885e1461004b5780636d4ce63c14610113575b600080fd5b34801561005757600080fd5b506101116004803603602081101561006e57600080fd5b810190808035906020019064010000000081111561008b57600080fd5b82018360208201111561009d57600080fd5b803590602001918460018302840111640100000000831117156100bf57600080fd5b91908080601f016020809104026020016040519081016040528093929190818152602001838380828437600081840152601f19601f8201169050808301925050505050505091929192905050506101a3565b005b34801561011f57600080fd5b506101286101bd565b6040518080602001828103825283818151815260200191508051906020019080838360005b8381101561016857808201518184015260208101905061014d565b50505050905090810190601f1680156101955780820380516001836020036101000a031916815260200191505b509250505060405180910390f35b80600090805190602001906101b992919061025f565b5050565b606060008054600181600116156101000203166002900480601f0160208091040260200160405190810160405280929190818152602001828054600181600116156101000203166002900480156102555780601f1061022a57610100808354040283529160200191610255565b820191906000526020600020905b81548152906001019060200180831161023857829003601f168201915b5050505050905090565b828054600181600116156101000203166002900490600052602060002090601f016020900481019282601f106102a057805160ff19168380011785556102ce565b828001600101855582156102ce579182015b828111156102cd5782518255916020019190600101906102b2565b5b5090506102db91906102df565b5090565b61030191905b808211156102fd5760008160009055506001016102e5565b5090565b9056fea165627a7a72305820126ad734ef867d0b4e796a34584b9e33ceb701c54b3c77f2e8dbdb61a7cbea050029",
  "source": "\r\npragma solidity >=0.5.1;\r\n\r\ncontract SimpleStorage {\r\n  string ipfsHash;\r\n  constructor(string memory x) public\r\n  {\r\n      ipfsHash = x;\r\n  }\r\n  function set(string memory x) public {\r\n    ipfsHash = x;\r\n  }\r\n\r\n  function get() public view returns (string memory) {\r\n    return ipfsHash;\r\n  }\r\n}\r\n",
  "sourcePath": "D:\\rujul\\sem6\\tarp\\MER-BLOCKCHAIN\\app\\contracts\\SimpleStorage.sol",
  "compiler": {
    "name": "solc",
    "version": "0.5.1+commit.c8a2cb62.Emscripten.clang"
  },
  "schemaVersion": "3.0.23",
  "updatedAt": "2023-04-12T17:37:37.117Z",
  "devdoc": {
    "methods": {}
  },
  "userdoc": {
    "methods": {}
  }
}